{
  "_format": "hh-sol-artifact-1",
  "contractName": "TwitterContract",
  "sourceName": "contracts/Twitter.sol",
  "abi": [
    {
      "anonymous": false,
      "inputs": [
        {
          "indexed": true,
          "internalType": "address",
          "name": "recipient",
          "type": "address"
        },
        {
          "indexed": false,
          "internalType": "uint256",
          "name": "tweetId",
          "type": "uint256"
        }
      ],
      "name": "AddTweet",
      "type": "event"
    },
    {
      "anonymous": false,
      "inputs": [
        {
          "indexed": false,
          "internalType": "uint256",
          "name": "tweetId",
          "type": "uint256"
        },
        {
          "indexed": false,
          "internalType": "bool",
          "name": "isDeleted",
          "type": "bool"
        }
      ],
      "name": "DeleteTweet",
      "type": "event"
    },
    {
      "inputs": [
        {
          "internalType": "string",
          "name": "tweetText",
          "type": "string"
        },
        {
          "internalType": "bool",
          "name": "isDeleted",
          "type": "bool"
        }
      ],
      "name": "addTweet",
      "outputs": [],
      "stateMutability": "nonpayable",
      "type": "function"
    },
    {
      "inputs": [
        {
          "internalType": "uint256",
          "name": "tweetId",
          "type": "uint256"
        }
      ],
      "name": "deleteTweet",
      "outputs": [],
      "stateMutability": "nonpayable",
      "type": "function"
    },
    {
      "inputs": [],
      "name": "getAllTweets",
      "outputs": [
        {
          "components": [
            {
              "internalType": "uint256",
              "name": "id",
              "type": "uint256"
            },
            {
              "internalType": "address",
              "name": "username",
              "type": "address"
            },
            {
              "internalType": "string",
              "name": "tweetText",
              "type": "string"
            },
            {
              "internalType": "bool",
              "name": "isDeleted",
              "type": "bool"
            }
          ],
          "internalType": "struct TwitterContract.Tweet[]",
          "name": "",
          "type": "tuple[]"
        }
      ],
      "stateMutability": "view",
      "type": "function"
    }
  ],
  "bytecode": "0x608060405234801561001057600080fd5b50610d05806100206000396000f3fe608060405234801561001057600080fd5b50600436106100415760003560e01c806353256135146100465780635775912a14610064578063e580339f14610080575b600080fd5b61004e61009c565b60405161005b9190610919565b60405180910390f35b61007e6004803603810190610079919061097b565b61037e565b005b61009a60048036038101906100959190610b09565b610461565b005b60606000808054905067ffffffffffffffff8111156100be576100bd6109b2565b5b6040519080825280602002602001820160405280156100f757816020015b6100e4610603565b8152602001906001900390816100dc5790505b5090506000805b6000805490508110156102c457600015156000828154811061012357610122610b65565b5b906000526020600020906004020160030160009054906101000a900460ff16151514156102b1576000818154811061015e5761015d610b65565b5b9060005260206000209060040201604051806080016040529081600082015481526020016001820160009054906101000a900473ffffffffffffffffffffffffffffffffffffffff1673ffffffffffffffffffffffffffffffffffffffff1673ffffffffffffffffffffffffffffffffffffffff1681526020016002820180546101e790610bc3565b80601f016020809104026020016040519081016040528092919081815260200182805461021390610bc3565b80156102605780601f1061023557610100808354040283529160200191610260565b820191906000526020600020905b81548152906001019060200180831161024357829003601f168201915b505050505081526020016003820160009054906101000a900460ff16151515158152505083838151811061029757610296610b65565b5b602002602001018190525081806102ad90610c24565b9250505b80806102bc90610c24565b9150506100fe565b5060008167ffffffffffffffff8111156102e1576102e06109b2565b5b60405190808252806020026020018201604052801561031a57816020015b610307610603565b8152602001906001900390816102ff5790505b50905060005b828110156103745783818151811061033b5761033a610b65565b5b602002602001015182828151811061035657610355610b65565b5b6020026020010181905250808061036c90610c24565b915050610320565b5080935050505090565b3373ffffffffffffffffffffffffffffffffffffffff166001600083815260200190815260200160002060009054906101000a900473ffffffffffffffffffffffffffffffffffffffff1673ffffffffffffffffffffffffffffffffffffffff16141561045e576001600082815481106103fb576103fa610b65565b5b906000526020600020906004020160030160006101000a81548160ff0219169083151502179055507f2430f837dd2fb40e08c064be9db3d0cf2a7a21f8fe716a2a41787dafc66a7e2a816001604051610455929190610c8b565b60405180910390a15b50565b600080805490509050600060405180608001604052808381526020013373ffffffffffffffffffffffffffffffffffffffff16815260200185815260200184151581525090806001815401808255809150506001900390600052602060002090600402016000909190919091506000820151816000015560208201518160010160006101000a81548173ffffffffffffffffffffffffffffffffffffffff021916908373ffffffffffffffffffffffffffffffffffffffff160217905550604082015181600201908051906020019061053b929190610643565b5060608201518160030160006101000a81548160ff0219169083151502179055505050336001600083815260200190815260200160002060006101000a81548173ffffffffffffffffffffffffffffffffffffffff021916908373ffffffffffffffffffffffffffffffffffffffff1602179055503373ffffffffffffffffffffffffffffffffffffffff167f8b2db9b424f26463510ef5b02c16f2465836b52081b51d2112ec76102053bdea826040516105f69190610cb4565b60405180910390a2505050565b604051806080016040528060008152602001600073ffffffffffffffffffffffffffffffffffffffff168152602001606081526020016000151581525090565b82805461064f90610bc3565b90600052602060002090601f01602090048101928261067157600085556106b8565b82601f1061068a57805160ff19168380011785556106b8565b828001600101855582156106b8579182015b828111156106b757825182559160200191906001019061069c565b5b5090506106c591906106c9565b5090565b5b808211156106e25760008160009055506001016106ca565b5090565b600081519050919050565b600082825260208201905092915050565b6000819050602082019050919050565b6000819050919050565b61072581610712565b82525050565b600073ffffffffffffffffffffffffffffffffffffffff82169050919050565b60006107568261072b565b9050919050565b6107668161074b565b82525050565b600081519050919050565b600082825260208201905092915050565b60005b838110156107a657808201518184015260208101905061078b565b838111156107b5576000848401525b50505050565b6000601f19601f8301169050919050565b60006107d78261076c565b6107e18185610777565b93506107f1818560208601610788565b6107fa816107bb565b840191505092915050565b60008115159050919050565b61081a81610805565b82525050565b6000608083016000830151610838600086018261071c565b50602083015161084b602086018261075d565b506040830151848203604086015261086382826107cc565b91505060608301516108786060860182610811565b508091505092915050565b600061088f8383610820565b905092915050565b6000602082019050919050565b60006108af826106e6565b6108b981856106f1565b9350836020820285016108cb85610702565b8060005b8581101561090757848403895281516108e88582610883565b94506108f383610897565b925060208a019950506001810190506108cf565b50829750879550505050505092915050565b6000602082019050818103600083015261093381846108a4565b905092915050565b6000604051905090565b600080fd5b600080fd5b61095881610712565b811461096357600080fd5b50565b6000813590506109758161094f565b92915050565b60006020828403121561099157610990610945565b5b600061099f84828501610966565b91505092915050565b600080fd5b600080fd5b7f4e487b7100000000000000000000000000000000000000000000000000000000600052604160045260246000fd5b6109ea826107bb565b810181811067ffffffffffffffff82111715610a0957610a086109b2565b5b80604052505050565b6000610a1c61093b565b9050610a2882826109e1565b919050565b600067ffffffffffffffff821115610a4857610a476109b2565b5b610a51826107bb565b9050602081019050919050565b82818337600083830152505050565b6000610a80610a7b84610a2d565b610a12565b905082815260208101848484011115610a9c57610a9b6109ad565b5b610aa7848285610a5e565b509392505050565b600082601f830112610ac457610ac36109a8565b5b8135610ad4848260208601610a6d565b91505092915050565b610ae681610805565b8114610af157600080fd5b50565b600081359050610b0381610add565b92915050565b60008060408385031215610b2057610b1f610945565b5b600083013567ffffffffffffffff811115610b3e57610b3d61094a565b5b610b4a85828601610aaf565b9250506020610b5b85828601610af4565b9150509250929050565b7f4e487b7100000000000000000000000000000000000000000000000000000000600052603260045260246000fd5b7f4e487b7100000000000000000000000000000000000000000000000000000000600052602260045260246000fd5b60006002820490506001821680610bdb57607f821691505b60208210811415610bef57610bee610b94565b5b50919050565b7f4e487b7100000000000000000000000000000000000000000000000000000000600052601160045260246000fd5b6000610c2f82610712565b91507fffffffffffffffffffffffffffffffffffffffffffffffffffffffffffffffff821415610c6257610c61610bf5565b5b600182019050919050565b610c7681610712565b82525050565b610c8581610805565b82525050565b6000604082019050610ca06000830185610c6d565b610cad6020830184610c7c565b9392505050565b6000602082019050610cc96000830184610c6d565b9291505056fea264697066735822122029e926ca2fbb8a59dcd84618828a69e00de64e0e3958f3c615842c5deb572f1964736f6c63430008090033",
  "linkReferences": {},
  "deployedLinkReferences": {}
}